{
  "contractName": "MetaCoin",
  "abi": [
    {
      "inputs": [
        {
          "internalType": "uint256",
          "name": "",
          "type": "uint256"
        }
      ],
      "name": "events",
      "outputs": [
        {
          "internalType": "address",
          "name": "owner",
          "type": "address"
        },
        {
          "internalType": "string",
          "name": "title",
          "type": "string"
        },
        {
          "internalType": "string",
          "name": "description",
          "type": "string"
        }
      ],
      "stateMutability": "view",
      "type": "function",
      "constant": true
    },
    {
      "inputs": [
        {
          "internalType": "address",
          "name": "_owner",
          "type": "address"
        },
        {
          "internalType": "string",
          "name": "_title",
          "type": "string"
        },
        {
          "internalType": "string",
          "name": "_description",
          "type": "string"
        }
      ],
      "name": "createEvent",
      "outputs": [
        {
          "internalType": "uint256",
          "name": "",
          "type": "uint256"
        }
      ],
      "stateMutability": "nonpayable",
      "type": "function"
    },
    {
      "inputs": [],
      "name": "getEvents",
      "outputs": [
        {
          "components": [
            {
              "internalType": "address",
              "name": "owner",
              "type": "address"
            },
            {
              "internalType": "string",
              "name": "title",
              "type": "string"
            },
            {
              "internalType": "string",
              "name": "description",
              "type": "string"
            },
            {
              "internalType": "uint256[]",
              "name": "candidates",
              "type": "uint256[]"
            }
          ],
          "internalType": "struct MetaCoin.Event[]",
          "name": "",
          "type": "tuple[]"
        }
      ],
      "stateMutability": "view",
      "type": "function",
      "constant": true
    }
  ],
  "bytecode": "0x6080604052600060015534801561001557600080fd5b50610dd8806100256000396000f3fe608060405234801561001057600080fd5b50600436106100415760003560e01c80630b79143014610046578063404aa8f9146100785780636e4ae47e14610096575b600080fd5b610060600480360381019061005b919061069a565b6100c6565b60405161006f939291906107a1565b60405180910390f35b610080610220565b60405161008d9190610a30565b60405180910390f35b6100b060048036038101906100ab9190610bb3565b6104b1565b6040516100bd9190610c4d565b60405180910390f35b60006020528060005260406000206000915090508060000160009054906101000a900473ffffffffffffffffffffffffffffffffffffffff169080600101805461010f90610c97565b80601f016020809104026020016040519081016040528092919081815260200182805461013b90610c97565b80156101885780601f1061015d57610100808354040283529160200191610188565b820191906000526020600020905b81548152906001019060200180831161016b57829003601f168201915b50505050509080600201805461019d90610c97565b80601f01602080910402602001604051908101604052809291908181526020018280546101c990610c97565b80156102165780601f106101eb57610100808354040283529160200191610216565b820191906000526020600020905b8154815290600101906020018083116101f957829003601f168201915b5050505050905083565b6060600060015467ffffffffffffffff8111156102405761023f610a88565b5b60405190808252806020026020018201604052801561027957816020015b61026661056f565b81526020019060019003908161025e5790505b50905060005b6001548110156104a9576000808281526020019081526020016000206040518060800160405290816000820160009054906101000a900473ffffffffffffffffffffffffffffffffffffffff1673ffffffffffffffffffffffffffffffffffffffff1673ffffffffffffffffffffffffffffffffffffffff16815260200160018201805461030c90610c97565b80601f016020809104026020016040519081016040528092919081815260200182805461033890610c97565b80156103855780601f1061035a57610100808354040283529160200191610385565b820191906000526020600020905b81548152906001019060200180831161036857829003601f168201915b5050505050815260200160028201805461039e90610c97565b80601f01602080910402602001604051908101604052809291908181526020018280546103ca90610c97565b80156104175780601f106103ec57610100808354040283529160200191610417565b820191906000526020600020905b8154815290600101906020018083116103fa57829003601f168201915b505050505081526020016003820180548060200260200160405190810160405280929190818152602001828054801561046f57602002820191906000526020600020905b81548152602001906001019080831161045b575b50505050508152505082828151811061048b5761048a610cc8565b5b602002602001018190525080806104a190610d26565b91505061027f565b508091505090565b60008060008060015481526020019081526020016000209050848160000160006101000a81548173ffffffffffffffffffffffffffffffffffffffff021916908373ffffffffffffffffffffffffffffffffffffffff160217905550838160010190805190602001906105259291906105ad565b508281600201908051906020019061053e9291906105ad565b506001600081548092919061055290610d26565b9190505550600180546105659190610d6e565b9150509392505050565b6040518060800160405280600073ffffffffffffffffffffffffffffffffffffffff1681526020016060815260200160608152602001606081525090565b8280546105b990610c97565b90600052602060002090601f0160209004810192826105db5760008555610622565b82601f106105f457805160ff1916838001178555610622565b82800160010185558215610622579182015b82811115610621578251825591602001919060010190610606565b5b50905061062f9190610633565b5090565b5b8082111561064c576000816000905550600101610634565b5090565b6000604051905090565b600080fd5b600080fd5b6000819050919050565b61067781610664565b811461068257600080fd5b50565b6000813590506106948161066e565b92915050565b6000602082840312156106b0576106af61065a565b5b60006106be84828501610685565b91505092915050565b600073ffffffffffffffffffffffffffffffffffffffff82169050919050565b60006106f2826106c7565b9050919050565b610702816106e7565b82525050565b600081519050919050565b600082825260208201905092915050565b60005b83811015610742578082015181840152602081019050610727565b83811115610751576000848401525b50505050565b6000601f19601f8301169050919050565b600061077382610708565b61077d8185610713565b935061078d818560208601610724565b61079681610757565b840191505092915050565b60006060820190506107b660008301866106f9565b81810360208301526107c88185610768565b905081810360408301526107dc8184610768565b9050949350505050565b600081519050919050565b600082825260208201905092915050565b6000819050602082019050919050565b61081b816106e7565b82525050565b600082825260208201905092915050565b600061083d82610708565b6108478185610821565b9350610857818560208601610724565b61086081610757565b840191505092915050565b600081519050919050565b600082825260208201905092915050565b6000819050602082019050919050565b6108a081610664565b82525050565b60006108b28383610897565b60208301905092915050565b6000602082019050919050565b60006108d68261086b565b6108e08185610876565b93506108eb83610887565b8060005b8381101561091c57815161090388826108a6565b975061090e836108be565b9250506001810190506108ef565b5085935050505092915050565b60006080830160008301516109416000860182610812565b50602083015184820360208601526109598282610832565b915050604083015184820360408601526109738282610832565b9150506060830151848203606086015261098d82826108cb565b9150508091505092915050565b60006109a68383610929565b905092915050565b6000602082019050919050565b60006109c6826107e6565b6109d081856107f1565b9350836020820285016109e285610802565b8060005b85811015610a1e57848403895281516109ff858261099a565b9450610a0a836109ae565b925060208a019950506001810190506109e6565b50829750879550505050505092915050565b60006020820190508181036000830152610a4a81846109bb565b905092915050565b610a5b816106e7565b8114610a6657600080fd5b50565b600081359050610a7881610a52565b92915050565b600080fd5b600080fd5b7f4e487b7100000000000000000000000000000000000000000000000000000000600052604160045260246000fd5b610ac082610757565b810181811067ffffffffffffffff82111715610adf57610ade610a88565b5b80604052505050565b6000610af2610650565b9050610afe8282610ab7565b919050565b600067ffffffffffffffff821115610b1e57610b1d610a88565b5b610b2782610757565b9050602081019050919050565b82818337600083830152505050565b6000610b56610b5184610b03565b610ae8565b905082815260208101848484011115610b7257610b71610a83565b5b610b7d848285610b34565b509392505050565b600082601f830112610b9a57610b99610a7e565b5b8135610baa848260208601610b43565b91505092915050565b600080600060608486031215610bcc57610bcb61065a565b5b6000610bda86828701610a69565b935050602084013567ffffffffffffffff811115610bfb57610bfa61065f565b5b610c0786828701610b85565b925050604084013567ffffffffffffffff811115610c2857610c2761065f565b5b610c3486828701610b85565b9150509250925092565b610c4781610664565b82525050565b6000602082019050610c626000830184610c3e565b92915050565b7f4e487b7100000000000000000000000000000000000000000000000000000000600052602260045260246000fd5b60006002820490506001821680610caf57607f821691505b602082108103610cc257610cc1610c68565b5b50919050565b7f4e487b7100000000000000000000000000000000000000000000000000000000600052603260045260246000fd5b7f4e487b7100000000000000000000000000000000000000000000000000000000600052601160045260246000fd5b6000610d3182610664565b91507fffffffffffffffffffffffffffffffffffffffffffffffffffffffffffffffff8203610d6357610d62610cf7565b5b600182019050919050565b6000610d7982610664565b9150610d8483610664565b925082821015610d9757610d96610cf7565b5b82820390509291505056fea2646970667358221220788c5f93c65e68c6b2108eb2d042104f83a188c07a9b67650ce2e7547dd76fa164736f6c634300080d0033",
  "immutableReferences": {},
  "source": "// SPDX-License-Identifier: MIT\n// Tells the Solidity compiler to compile only from v0.8.13 to v0.9.0\npragma solidity ^0.8.13;\n\nimport \"./ConvertLib.sol\";\n\n// This is just a simple example of a coin-like contract.\n// It is not ERC20 compatible and cannot be expected to talk to other\n// coin/token contracts.\n\ncontract MetaCoin {\n\tstruct Event {\n        address owner;\n        string title;\n        string description;\n        uint256[] candidates;\n    }\n     struct Certificate {\n        address owner;\n        string certificateData; // Assuming the certificate is represented as a string\n    }\n    mapping(uint256 => Event) public events;\n    uint256 numberOfEvents = 0;\n    function createEvent(\n        address _owner,\n        string memory _title,\n        string memory _description\n    ) public returns (uint256) {\n        Event storage ent = events[numberOfEvents];\n        ent.owner = _owner;\n        ent.title = _title;\n        ent.description = _description;\n        numberOfEvents++;\n        return numberOfEvents - 1;\n    }\n    function getEvents() public view returns (Event[] memory) {\n        Event[] memory allEvents = new Event[](numberOfEvents);\n        for (uint256 i = 0; i < numberOfEvents; i++) {\n            allEvents[i] = events[i];\n        }\n        return allEvents;\n    }\n}\n",
  "sourcePath": "C:\\Users\\lenovo\\Desktop\\Devhack\\Solidity\\contracts\\MetaCoin.sol",
  "compiler": {
    "name": "solc",
    "version": "0.8.13+commit.abaa5c0e.Emscripten.clang"
  },
  "schemaVersion": "3.4.16",
  "updatedAt": "2024-02-04T01:39:39.646Z",
  "networkType": "ethereum",
  "devdoc": {
    "kind": "dev",
    "methods": {},
    "version": 1
  },
  "userdoc": {
    "kind": "user",
    "methods": {},
    "version": 1
  }
}